{
  "contractName": "Inventory",
  "abi": [
    {
      "constant": true,
      "inputs": [
        {
          "internalType": "string",
          "name": "",
          "type": "string"
        }
      ],
      "name": "itemExists",
      "outputs": [
        {
          "internalType": "bool",
          "name": "",
          "type": "bool"
        }
      ],
      "payable": false,
      "stateMutability": "view",
      "type": "function"
    },
    {
      "constant": true,
      "inputs": [
        {
          "internalType": "string",
          "name": "",
          "type": "string"
        }
      ],
      "name": "items",
      "outputs": [
        {
          "internalType": "string",
          "name": "id",
          "type": "string"
        },
        {
          "internalType": "string",
          "name": "partSerialNo",
          "type": "string"
        },
        {
          "internalType": "string",
          "name": "status",
          "type": "string"
        },
        {
          "internalType": "string",
          "name": "quantity",
          "type": "string"
        },
        {
          "internalType": "string",
          "name": "location",
          "type": "string"
        },
        {
          "internalType": "string",
          "name": "containerNo",
          "type": "string"
        },
        {
          "internalType": "string",
          "name": "supplier",
          "type": "string"
        }
      ],
      "payable": false,
      "stateMutability": "view",
      "type": "function"
    },
    {
      "constant": false,
      "inputs": [
        {
          "internalType": "string",
          "name": "_id",
          "type": "string"
        },
        {
          "internalType": "string",
          "name": "_partSerialNo",
          "type": "string"
        },
        {
          "internalType": "string",
          "name": "_status",
          "type": "string"
        },
        {
          "internalType": "string",
          "name": "_quantity",
          "type": "string"
        },
        {
          "internalType": "string",
          "name": "_location",
          "type": "string"
        },
        {
          "internalType": "string",
          "name": "_containerNo",
          "type": "string"
        },
        {
          "internalType": "string",
          "name": "_supplier",
          "type": "string"
        }
      ],
      "name": "addItem",
      "outputs": [],
      "payable": false,
      "stateMutability": "nonpayable",
      "type": "function"
    },
    {
      "constant": false,
      "inputs": [
        {
          "internalType": "string",
          "name": "_id",
          "type": "string"
        },
        {
          "internalType": "string",
          "name": "_status",
          "type": "string"
        }
      ],
      "name": "updateItemStatus",
      "outputs": [],
      "payable": false,
      "stateMutability": "nonpayable",
      "type": "function"
    },
    {
      "constant": true,
      "inputs": [
        {
          "internalType": "string",
          "name": "_id",
          "type": "string"
        }
      ],
      "name": "getItem",
      "outputs": [
        {
          "internalType": "string",
          "name": "",
          "type": "string"
        },
        {
          "internalType": "string",
          "name": "",
          "type": "string"
        },
        {
          "internalType": "string",
          "name": "",
          "type": "string"
        },
        {
          "internalType": "string",
          "name": "",
          "type": "string"
        },
        {
          "internalType": "string",
          "name": "",
          "type": "string"
        },
        {
          "internalType": "string",
          "name": "",
          "type": "string"
        },
        {
          "internalType": "string",
          "name": "",
          "type": "string"
        }
      ],
      "payable": false,
      "stateMutability": "view",
      "type": "function"
    }
  ],
  "bytecode": "0x608060405234801561001057600080fd5b5061188e806100206000396000f3fe608060405234801561001057600080fd5b50600436106100575760003560e01c80634909b29b1461005c5780636cfd5fce146103df578063b6010fcd146107a3578063cb2fb31014610847578063d86e2dbc146108ff575b600080fd5b6101006004803603602081101561007257600080fd5b810190602081018135600160201b81111561008c57600080fd5b82018360208201111561009e57600080fd5b803590602001918460018302840111600160201b831117156100bf57600080fd5b91908080601f016020809104026020016040519081016040528093929190818152602001838380828437600092019190915250929550610a28945050505050565b604051808060200180602001806020018060200180602001806020018060200188810388528f818151815260200191508051906020019080838360005b8381101561015557818101518382015260200161013d565b50505050905090810190601f1680156101825780820380516001836020036101000a031916815260200191505b5088810387528e818151815260200191508051906020019080838360005b838110156101b85781810151838201526020016101a0565b50505050905090810190601f1680156101e55780820380516001836020036101000a031916815260200191505b5088810386528d5181528d516020918201918f019080838360005b83811015610218578181015183820152602001610200565b50505050905090810190601f1680156102455780820380516001836020036101000a031916815260200191505b5088810385528c5181528c516020918201918e019080838360005b83811015610278578181015183820152602001610260565b50505050905090810190601f1680156102a55780820380516001836020036101000a031916815260200191505b5088810384528b5181528b516020918201918d019080838360005b838110156102d85781810151838201526020016102c0565b50505050905090810190601f1680156103055780820380516001836020036101000a031916815260200191505b5088810383528a5181528a516020918201918c019080838360005b83811015610338578181015183820152602001610320565b50505050905090810190601f1680156103655780820380516001836020036101000a031916815260200191505b5088810382528951815289516020918201918b019080838360005b83811015610398578181015183820152602001610380565b50505050905090810190601f1680156103c55780820380516001836020036101000a031916815260200191505b509e50505050505050505050505050505060405180910390f35b6107a1600480360360e08110156103f557600080fd5b810190602081018135600160201b81111561040f57600080fd5b82018360208201111561042157600080fd5b803590602001918460018302840111600160201b8311171561044257600080fd5b91908080601f0160208091040260200160405190810160405280939291908181526020018383808284376000920191909152509295949360208101935035915050600160201b81111561049457600080fd5b8201836020820111156104a657600080fd5b803590602001918460018302840111600160201b831117156104c757600080fd5b91908080601f0160208091040260200160405190810160405280939291908181526020018383808284376000920191909152509295949360208101935035915050600160201b81111561051957600080fd5b82018360208201111561052b57600080fd5b803590602001918460018302840111600160201b8311171561054c57600080fd5b91908080601f0160208091040260200160405190810160405280939291908181526020018383808284376000920191909152509295949360208101935035915050600160201b81111561059e57600080fd5b8201836020820111156105b057600080fd5b803590602001918460018302840111600160201b831117156105d157600080fd5b91908080601f0160208091040260200160405190810160405280939291908181526020018383808284376000920191909152509295949360208101935035915050600160201b81111561062357600080fd5b82018360208201111561063557600080fd5b803590602001918460018302840111600160201b8311171561065657600080fd5b91908080601f0160208091040260200160405190810160405280939291908181526020018383808284376000920191909152509295949360208101935035915050600160201b8111156106a857600080fd5b8201836020820111156106ba57600080fd5b803590602001918460018302840111600160201b831117156106db57600080fd5b91908080601f0160208091040260200160405190810160405280939291908181526020018383808284376000920191909152509295949360208101935035915050600160201b81111561072d57600080fd5b82018360208201111561073f57600080fd5b803590602001918460018302840111600160201b8311171561076057600080fd5b91908080601f016020809104026020016040519081016040528093929190818152602001838380828437600092019190915250929550610e45945050505050565b005b610100600480360360208110156107b957600080fd5b810190602081018135600160201b8111156107d357600080fd5b8201836020820111156107e557600080fd5b803590602001918460018302840111600160201b8311171561080657600080fd5b91908080601f0160208091040260200160405190810160405280939291908181526020018383808284376000920191909152509295506110bb945050505050565b6108eb6004803603602081101561085d57600080fd5b810190602081018135600160201b81111561087757600080fd5b82018360208201111561088957600080fd5b803590602001918460018302840111600160201b831117156108aa57600080fd5b91908080601f016020809104026020016040519081016040528093929190818152602001838380828437600092019190915250929550611637945050505050565b604080519115158252519081900360200190f35b6107a16004803603604081101561091557600080fd5b810190602081018135600160201b81111561092f57600080fd5b82018360208201111561094157600080fd5b803590602001918460018302840111600160201b8311171561096257600080fd5b91908080601f0160208091040260200160405190810160405280939291908181526020018383808284376000920191909152509295949360208101935035915050600160201b8111156109b457600080fd5b8201836020820111156109c657600080fd5b803590602001918460018302840111600160201b831117156109e757600080fd5b91908080601f016020809104026020016040519081016040528093929190818152602001838380828437600092019190915250929550611657945050505050565b805160208183018101805160008252928201938201939093209190925280546040805160026001841615610100026000190190931692909204601f8101859004850283018501909152808252919290918391830182828015610acb5780601f10610aa057610100808354040283529160200191610acb565b820191906000526020600020905b815481529060010190602001808311610aae57829003601f168201915b505050505090806001018054600181600116156101000203166002900480601f016020809104026020016040519081016040528092919081815260200182805460018160011615610100020316600290048015610b695780601f10610b3e57610100808354040283529160200191610b69565b820191906000526020600020905b815481529060010190602001808311610b4c57829003601f168201915b50505060028085018054604080516020601f6000196101006001871615020190941695909504928301859004850281018501909152818152959695945090925090830182828015610bfb5780601f10610bd057610100808354040283529160200191610bfb565b820191906000526020600020905b815481529060010190602001808311610bde57829003601f168201915b5050505060038301805460408051602060026001851615610100026000190190941693909304601f8101849004840282018401909252818152949594935090830182828015610c8b5780601f10610c6057610100808354040283529160200191610c8b565b820191906000526020600020905b815481529060010190602001808311610c6e57829003601f168201915b5050505060048301805460408051602060026001851615610100026000190190941693909304601f8101849004840282018401909252818152949594935090830182828015610d1b5780601f10610cf057610100808354040283529160200191610d1b565b820191906000526020600020905b815481529060010190602001808311610cfe57829003601f168201915b5050505060058301805460408051602060026001851615610100026000190190941693909304601f8101849004840282018401909252818152949594935090830182828015610dab5780601f10610d8057610100808354040283529160200191610dab565b820191906000526020600020905b815481529060010190602001808311610d8e57829003601f168201915b5050505060068301805460408051602060026001851615610100026000190190941693909304601f8101849004840282018401909252818152949594935090830182828015610e3b5780601f10610e1057610100808354040283529160200191610e3b565b820191906000526020600020905b815481529060010190602001808311610e1e57829003601f168201915b5050505050905087565b6001876040518082805190602001908083835b60208310610e775780518252601f199092019160209182019101610e58565b51815160209384036101000a600019018019909216911617905292019485525060405193849003019092205460ff16159150610ef39050576040805162461bcd60e51b815260206004820152601460248201527324ba32b69030b63932b0b23c9032bc34b9ba399760611b604482015290519081900360640190fd5b6040518060e00160405280888152602001878152602001868152602001858152602001848152602001838152602001828152506000886040518082805190602001908083835b60208310610f585780518252601f199092019160209182019101610f39565b51815160209384036101000a6000190180199092169116179052920194855250604051938490038101909320845180519194610f9994508593500190611781565b506020828101518051610fb29260018501920190611781565b5060408201518051610fce916002840191602090910190611781565b5060608201518051610fea916003840191602090910190611781565b5060808201518051611006916004840191602090910190611781565b5060a08201518051611022916005840191602090910190611781565b5060c0820151805161103e916006840191602090910190611781565b50905050600180886040518082805190602001908083835b602083106110755780518252601f199092019160209182019101611056565b51815160209384036101000a60001901801990921691161790529201948552506040519384900301909220805460ff191693151593909317909255505050505050505050565b60608060608060608060606001886040518082805190602001908083835b602083106110f85780518252601f1990920191602091820191016110d9565b51815160209384036101000a600019018019909216911617905292019485525060405193849003019092205460ff1691506111739050576040805162461bcd60e51b815260206004820152601460248201527324ba32b6903237b2b9903737ba1032bc34b9ba1760611b604482015290519081900360640190fd5b61117b6117ff565b6000896040518082805190602001908083835b602083106111ad5780518252601f19909201916020918201910161118e565b518151602093840361010090810a600019908101801990941693909216929092179092529290940196875260408051978890038201882080546002600182161586029097011695909504601f810183900490920288018301905260e08701818152939550869450859250908401828280156112695780601f1061123e57610100808354040283529160200191611269565b820191906000526020600020905b81548152906001019060200180831161124c57829003601f168201915b50505050508152602001600182018054600181600116156101000203166002900480601f01602080910402602001604051908101604052809291908181526020018280546001816001161561010002031660029004801561130b5780601f106112e05761010080835404028352916020019161130b565b820191906000526020600020905b8154815290600101906020018083116112ee57829003601f168201915b5050509183525050600282810180546040805160206001841615610100026000190190931694909404601f8101839004830285018301909152808452938101939083018282801561139d5780601f106113725761010080835404028352916020019161139d565b820191906000526020600020905b81548152906001019060200180831161138057829003601f168201915b505050918352505060038201805460408051602060026001851615610100026000190190941693909304601f81018490048402820184019092528181529382019392918301828280156114315780601f1061140657610100808354040283529160200191611431565b820191906000526020600020905b81548152906001019060200180831161141457829003601f168201915b505050918352505060048201805460408051602060026001851615610100026000190190941693909304601f81018490048402820184019092528181529382019392918301828280156114c55780601f1061149a576101008083540402835291602001916114c5565b820191906000526020600020905b8154815290600101906020018083116114a857829003601f168201915b505050918352505060058201805460408051602060026001851615610100026000190190941693909304601f81018490048402820184019092528181529382019392918301828280156115595780601f1061152e57610100808354040283529160200191611559565b820191906000526020600020905b81548152906001019060200180831161153c57829003601f168201915b505050918352505060068201805460408051602060026001851615610100026000190190941693909304601f81018490048402820184019092528181529382019392918301828280156115ed5780601f106115c2576101008083540402835291602001916115ed565b820191906000526020600020905b8154815290600101906020018083116115d057829003601f168201915b5050509190925250508151602083015160408401516060850151608086015160a087015160c090970151949e50929c50909a50985096509194509092505050919395979092949650565b805160208183018101805160018252928201919093012091525460ff1681565b6001826040518082805190602001908083835b602083106116895780518252601f19909201916020918201910161166a565b51815160209384036101000a600019018019909216911617905292019485525060405193849003019092205460ff1691506117049050576040805162461bcd60e51b815260206004820152601460248201527324ba32b6903237b2b9903737ba1032bc34b9ba1760611b604482015290519081900360640190fd5b806000836040518082805190602001908083835b602083106117375780518252601f199092019160209182019101611718565b51815160209384036101000a6000190180199092169116179052920194855250604051938490038101909320845161177c956002909201949190910192509050611781565b505050565b828054600181600116156101000203166002900490600052602060002090601f016020900481019282601f106117c257805160ff19168380011785556117ef565b828001600101855582156117ef579182015b828111156117ef5782518255916020019190600101906117d4565b506117fb92915061183c565b5090565b6040518060e00160405280606081526020016060815260200160608152602001606081526020016060815260200160608152602001606081525090565b61185691905b808211156117fb5760008155600101611842565b9056fea265627a7a72315820ab24d0552df786200d83bb7a6537f00a33dd2f6e08f88404428b09224649ca5264736f6c63430005100032",
  "source": "pragma solidity >=0.4.22 <0.7.0;\r\n\r\ncontract Inventory {\r\n    struct Item {\r\n        string id;\r\n        string partSerialNo;\r\n        string status;\r\n        string quantity;\r\n        string location;\r\n        string containerNo;\r\n        string supplier;\r\n    }\r\n\r\n    mapping(string => Item) public items;\r\n    mapping(string => bool) public itemExists;\r\n\r\n    function addItem(string memory _id, string memory _partSerialNo, string memory _status, string memory _quantity, string memory _location, string memory _containerNo, string memory _supplier) public {\r\n        require(!itemExists[_id], \"Item already exists.\");\r\n        items[_id] = Item(_id, _partSerialNo, _status, _quantity, _location, _containerNo, _supplier);\r\n        itemExists[_id] = true;\r\n    }\r\n\r\n    function updateItemStatus(string memory _id, string memory _status) public {\r\n        require(itemExists[_id], \"Item does not exist.\");\r\n        items[_id].status = _status;\r\n    }\r\n\r\n    function getItem(string memory _id) public view returns (string memory, string memory, string memory, string memory, string memory, string memory, string memory) {\r\n        require(itemExists[_id], \"Item does not exist.\");\r\n        Item memory item = items[_id];\r\n        return (item.id, item.partSerialNo, item.status, item.quantity, item.location, item.containerNo, item.supplier);\r\n    }\r\n}\r\n",
  "sourcePath": "C:\\Shubham\\App\\server\\contracts\\Inventory.sol",
  "compiler": {
    "name": "solc",
    "version": "0.5.16+commit.9c3226ce.Emscripten.clang"
  },
  "schemaVersion": "3.4.16",
  "updatedAt": "2024-04-29T20:44:00.245Z",
  "networkType": "ethereum",
  "devdoc": {
    "methods": {}
  },
  "userdoc": {
    "methods": {}
  }
}