{
  "contractName": "OrderRegistry",
  "abi": [
    {
      "constant": true,
      "inputs": [
        {
          "internalType": "string",
          "name": "",
          "type": "string"
        }
      ],
      "name": "orderExists",
      "outputs": [
        {
          "internalType": "bool",
          "name": "",
          "type": "bool"
        }
      ],
      "payable": false,
      "stateMutability": "view",
      "type": "function"
    },
    {
      "constant": true,
      "inputs": [
        {
          "internalType": "string",
          "name": "",
          "type": "string"
        }
      ],
      "name": "orders",
      "outputs": [
        {
          "internalType": "string",
          "name": "id",
          "type": "string"
        },
        {
          "internalType": "string",
          "name": "orderNo",
          "type": "string"
        },
        {
          "internalType": "string",
          "name": "orderDate",
          "type": "string"
        },
        {
          "internalType": "string",
          "name": "orderBy",
          "type": "string"
        },
        {
          "internalType": "string",
          "name": "shipTo",
          "type": "string"
        },
        {
          "internalType": "string",
          "name": "container",
          "type": "string"
        },
        {
          "internalType": "string",
          "name": "status",
          "type": "string"
        }
      ],
      "payable": false,
      "stateMutability": "view",
      "type": "function"
    },
    {
      "constant": false,
      "inputs": [
        {
          "internalType": "string",
          "name": "_id",
          "type": "string"
        },
        {
          "internalType": "string",
          "name": "_orderNo",
          "type": "string"
        },
        {
          "internalType": "string",
          "name": "_orderDate",
          "type": "string"
        },
        {
          "internalType": "string",
          "name": "_orderBy",
          "type": "string"
        },
        {
          "internalType": "string",
          "name": "_shipTo",
          "type": "string"
        },
        {
          "internalType": "string[]",
          "name": "_partSerialNos",
          "type": "string[]"
        },
        {
          "internalType": "string[]",
          "name": "_partNames",
          "type": "string[]"
        },
        {
          "internalType": "uint256[]",
          "name": "_quantities",
          "type": "uint256[]"
        },
        {
          "internalType": "uint256[]",
          "name": "_unitPrices",
          "type": "uint256[]"
        }
      ],
      "name": "addOrder",
      "outputs": [],
      "payable": false,
      "stateMutability": "nonpayable",
      "type": "function"
    },
    {
      "constant": false,
      "inputs": [
        {
          "internalType": "string",
          "name": "_orderNo",
          "type": "string"
        },
        {
          "internalType": "string",
          "name": "_status",
          "type": "string"
        },
        {
          "internalType": "string",
          "name": "_container",
          "type": "string"
        }
      ],
      "name": "updateOrder",
      "outputs": [],
      "payable": false,
      "stateMutability": "nonpayable",
      "type": "function"
    },
    {
      "constant": true,
      "inputs": [
        {
          "internalType": "string",
          "name": "_orderNo",
          "type": "string"
        }
      ],
      "name": "getOrder",
      "outputs": [
        {
          "internalType": "string",
          "name": "",
          "type": "string"
        },
        {
          "internalType": "string",
          "name": "",
          "type": "string"
        },
        {
          "internalType": "string",
          "name": "",
          "type": "string"
        },
        {
          "internalType": "string",
          "name": "",
          "type": "string"
        },
        {
          "internalType": "string",
          "name": "",
          "type": "string"
        },
        {
          "internalType": "string",
          "name": "",
          "type": "string"
        }
      ],
      "payable": false,
      "stateMutability": "view",
      "type": "function"
    }
  ],
  "bytecode": "0x608060405234801561001057600080fd5b506116f0806100206000396000f3fe608060405234801561001057600080fd5b50600436106100575760003560e01c80631a9489471461005c578063712ca0f81461008b5780638b911714146100b05780639d94e536146100c5578063a959d585146100d8575b600080fd5b61006f61006a366004611142565b6100f8565b604051610082979695949392919061151a565b60405180910390f35b61009e610099366004611142565b610515565b60405161008296959493929190611499565b6100c36100be36600461117e565b610b89565b005b6100c36100d336600461120f565b610c39565b6100eb6100e6366004611142565b610ed7565b604051610082919061148b565b805160208183018101805160008252928201938201939093209190925280546040805160026001841615610100026000190190931692909204601f810185900485028301850190915280825291929091839183018282801561019b5780601f106101705761010080835404028352916020019161019b565b820191906000526020600020905b81548152906001019060200180831161017e57829003601f168201915b505050505090806001018054600181600116156101000203166002900480601f0160208091040260200160405190810160405280929190818152602001828054600181600116156101000203166002900480156102395780601f1061020e57610100808354040283529160200191610239565b820191906000526020600020905b81548152906001019060200180831161021c57829003601f168201915b50505060028085018054604080516020601f60001961010060018716150201909416959095049283018590048502810185019091528181529596959450909250908301828280156102cb5780601f106102a0576101008083540402835291602001916102cb565b820191906000526020600020905b8154815290600101906020018083116102ae57829003601f168201915b5050505060038301805460408051602060026001851615610100026000190190941693909304601f810184900484028201840190925281815294959493509083018282801561035b5780601f106103305761010080835404028352916020019161035b565b820191906000526020600020905b81548152906001019060200180831161033e57829003601f168201915b5050505060048301805460408051602060026001851615610100026000190190941693909304601f81018490048402820184019092528181529495949350908301828280156103eb5780601f106103c0576101008083540402835291602001916103eb565b820191906000526020600020905b8154815290600101906020018083116103ce57829003601f168201915b5050505060058301805460408051602060026001851615610100026000190190941693909304601f810184900484028201840190925281815294959493509083018282801561047b5780601f106104505761010080835404028352916020019161047b565b820191906000526020600020905b81548152906001019060200180831161045e57829003601f168201915b5050505060078301805460408051602060026001851615610100026000190190941693909304601f810184900484028201840190925281815294959493509083018282801561050b5780601f106104e05761010080835404028352916020019161050b565b820191906000526020600020905b8154815290600101906020018083116104ee57829003601f168201915b5050505050905087565b60608060608060608060018760405161052e9190611478565b9081526040519081900360200190205460ff166105665760405162461bcd60e51b815260040161055d906115c0565b60405180910390fd5b61056e610ef7565b60008860405161057e9190611478565b908152604080516020928190038301812080546002610100600183161581026000190190921604601f8101869004909502830161012090810190945282018481529193909284929184918401828280156106195780601f106105ee57610100808354040283529160200191610619565b820191906000526020600020905b8154815290600101906020018083116105fc57829003601f168201915b50505050508152602001600182018054600181600116156101000203166002900480601f0160208091040260200160405190810160405280929190818152602001828054600181600116156101000203166002900480156106bb5780601f10610690576101008083540402835291602001916106bb565b820191906000526020600020905b81548152906001019060200180831161069e57829003601f168201915b5050509183525050600282810180546040805160206001841615610100026000190190931694909404601f8101839004830285018301909152808452938101939083018282801561074d5780601f106107225761010080835404028352916020019161074d565b820191906000526020600020905b81548152906001019060200180831161073057829003601f168201915b505050918352505060038201805460408051602060026001851615610100026000190190941693909304601f81018490048402820184019092528181529382019392918301828280156107e15780601f106107b6576101008083540402835291602001916107e1565b820191906000526020600020905b8154815290600101906020018083116107c457829003601f168201915b505050918352505060048201805460408051602060026001851615610100026000190190941693909304601f81018490048402820184019092528181529382019392918301828280156108755780601f1061084a57610100808354040283529160200191610875565b820191906000526020600020905b81548152906001019060200180831161085857829003601f168201915b505050918352505060058201805460408051602060026001851615610100026000190190941693909304601f81018490048402820184019092528181529382019392918301828280156109095780601f106108de57610100808354040283529160200191610909565b820191906000526020600020905b8154815290600101906020018083116108ec57829003601f168201915b5050505050815260200160068201805480602002602001604051908101604052809291908181526020016000905b82821015610ab85760008481526020908190206040805160058602909201805460026001821615610100026000190190911604601f8101859004909402830160c090810190925260a08301848152929390928492909184918401828280156109e05780601f106109b5576101008083540402835291602001916109e0565b820191906000526020600020905b8154815290600101906020018083116109c357829003601f168201915b50505050508152602001600182018054600181600116156101000203166002900480601f016020809104026020016040519081016040528092919081815260200182805460018160011615610100020316600290048015610a825780601f10610a5757610100808354040283529160200191610a82565b820191906000526020600020905b815481529060010190602001808311610a6557829003601f168201915b50505050508152602001600282015481526020016003820154815260200160048201548152505081526020019060010190610937565b5050509082525060078201805460408051602060026001851615610100026000190190941693909304601f8101849004840282018401909252818152938201939291830182828015610b4b5780601f10610b2057610100808354040283529160200191610b4b565b820191906000526020600020905b815481529060010190602001808311610b2e57829003601f168201915b50505091909252505050602081015160408201516060830151608084015160a085015160e090950151939d929c50909a509850919650945092505050565b600183604051610b999190611478565b9081526040519081900360200190205460ff16610bc85760405162461bcd60e51b815260040161055d906115c0565b81600084604051610bd99190611478565b90815260200160405180910390206007019080519060200190610bfd929190610f3c565b5080600084604051610c0f9190611478565b90815260200160405180910390206005019080519060200190610c33929190610f3c565b50505050565b600188604051610c499190611478565b9081526040519081900360200190205460ff1615610c795760405162461bcd60e51b815260040161055d906115b0565b60008089604051610c8a9190611478565b9081526020016040518091039020905089816000019080519060200190610cb2929190610f3c565b508851610cc890600183019060208c0190610f3c565b508751610cde90600283019060208b0190610f3c565b508651610cf490600383019060208a0190610f3c565b508551610d0a9060048301906020890190610f3c565b50604080518082019091526002808252614e4160f01b6020909201918252610d36916005840191610f3c565b506040805180820190915260078082526650656e64696e6760c81b6020909201918252610d669183820191610f3c565b5060005b8551811015610e9957610d7b610fba565b6040518060a00160405280888481518110610d9257fe5b60200260200101518152602001878481518110610dab57fe5b60200260200101518152602001868481518110610dc457fe5b60200260200101518152602001858481518110610ddd57fe5b60200260200101518152602001858481518110610df657fe5b6020026020010151878581518110610e0a57fe5b60209081029190910181015191909102909152600685018054600181018083556000928352918390208451805195965092948694600590930290910192610e55928492910190610f3c565b506020828101518051610e6e9260018501920190610f3c565b5060408201516002820155606082015160038201556080909101516004909101555050600101610d6a565b506001808a604051610eab9190611478565b908152604051908190036020019020805491151560ff1990921691909117905550505050505050505050565b805160208183018101805160018252928201919093012091525460ff1681565b60405180610100016040528060608152602001606081526020016060815260200160608152602001606081526020016060815260200160608152602001606081525090565b828054600181600116156101000203166002900490600052602060002090601f016020900481019282601f10610f7d57805160ff1916838001178555610faa565b82800160010185558215610faa579182015b82811115610faa578251825591602001919060010190610f8f565b50610fb6929150610fe9565b5090565b6040518060a0016040528060608152602001606081526020016000815260200160008152602001600081525090565b61100391905b80821115610fb65760008155600101610fef565b90565b600082601f83011261101757600080fd5b813561102a611025826115f6565b6115d0565b81815260209384019390925082018360005b83811015611068578135860161105288826110e2565b845250602092830192919091019060010161103c565b5050505092915050565b600082601f83011261108357600080fd5b8135611091611025826115f6565b915081818352602084019350602081019050838560208402820111156110b657600080fd5b60005b8381101561106857816110cc8882611131565b84525060209283019291909101906001016110b9565b600082601f8301126110f357600080fd5b813561110161102582611616565b9150808252602083016020830185838301111561111d57600080fd5b611128838284611654565b50505092915050565b803561113c81611696565b92915050565b60006020828403121561115457600080fd5b81356001600160401b0381111561116a57600080fd5b611176848285016110e2565b949350505050565b60008060006060848603121561119357600080fd5b83356001600160401b038111156111a957600080fd5b6111b5868287016110e2565b93505060208401356001600160401b038111156111d157600080fd5b6111dd868287016110e2565b92505060408401356001600160401b038111156111f957600080fd5b611205868287016110e2565b9150509250925092565b60008060008060008060008060006101208a8c03121561122e57600080fd5b89356001600160401b0381111561124457600080fd5b6112508c828d016110e2565b99505060208a01356001600160401b0381111561126c57600080fd5b6112788c828d016110e2565b98505060408a01356001600160401b0381111561129457600080fd5b6112a08c828d016110e2565b97505060608a01356001600160401b038111156112bc57600080fd5b6112c88c828d016110e2565b96505060808a01356001600160401b038111156112e457600080fd5b6112f08c828d016110e2565b95505060a08a01356001600160401b0381111561130c57600080fd5b6113188c828d01611006565b94505060c08a01356001600160401b0381111561133457600080fd5b6113408c828d01611006565b93505060e08a01356001600160401b0381111561135c57600080fd5b6113688c828d01611072565b9250506101008a01356001600160401b0381111561138557600080fd5b6113918c828d01611072565b9150509295985092959850929598565b6113aa8161164f565b82525050565b60006113bb8261163d565b6113c58185611641565b93506113d5818560208601611660565b6113de8161168c565b9093019392505050565b60006113f38261163d565b6113fd818561164a565b935061140d818560208601611660565b9290920192915050565b6000611424601483611641565b734f7264657220616c72656164792065786973747360601b815260200192915050565b6000611454601583611641565b7427b93232b9103237b2b9903737ba1032bc34b9ba1760591b815260200192915050565b600061148482846113e8565b9392505050565b6020810161113c82846113a1565b60c080825281016114aa81896113b0565b905081810360208301526114be81886113b0565b905081810360408301526114d281876113b0565b905081810360608301526114e681866113b0565b905081810360808301526114fa81856113b0565b905081810360a083015261150e81846113b0565b98975050505050505050565b60e0808252810161152b818a6113b0565b9050818103602083015261153f81896113b0565b9050818103604083015261155381886113b0565b9050818103606083015261156781876113b0565b9050818103608083015261157b81866113b0565b905081810360a083015261158f81856113b0565b905081810360c08301526115a381846113b0565b9998505050505050505050565b6020808252810161113c81611417565b6020808252810161113c81611447565b6040518181016001600160401b03811182821017156115ee57600080fd5b604052919050565b60006001600160401b0382111561160c57600080fd5b5060209081020190565b60006001600160401b0382111561162c57600080fd5b506020601f91909101601f19160190565b5190565b90815260200190565b919050565b151590565b82818337506000910152565b60005b8381101561167b578181015183820152602001611663565b83811115610c335750506000910152565b601f01601f191690565b61169f81611003565b81146116aa57600080fd5b5056fea365627a7a72315820254398b2350120356327017f61c408dd71df3d0db129cfb8a24197eaf075af316c6578706572696d656e74616cf564736f6c63430005100040",
  "source": "pragma solidity >=0.4.22 <0.7.0;\r\npragma experimental ABIEncoderV2;\r\n\r\ncontract OrderRegistry {\r\n    struct Part {\r\n        string partSerialNo;\r\n        string partName;\r\n        uint quantity;\r\n        uint unitPrice;\r\n        uint totalAmount;\r\n    }\r\n\r\n    struct Order {\r\n        string id;\r\n        string orderNo;\r\n        string orderDate;\r\n        string orderBy;\r\n        string shipTo;\r\n        string container;\r\n        Part[] parts;\r\n        string status;\r\n    }\r\n\r\n    mapping(string => Order) public orders;\r\n    mapping(string => bool) public orderExists;\r\n\r\n    function addOrder(\r\n        string memory _id,\r\n        string memory _orderNo,\r\n        string memory _orderDate,\r\n        string memory _orderBy,\r\n        string memory _shipTo,\r\n        string[] memory _partSerialNos,\r\n        string[] memory _partNames,\r\n        uint[] memory _quantities,\r\n        uint[] memory _unitPrices\r\n    ) public {\r\n        require(!orderExists[_orderNo], \"Order already exists\");\r\n        Order storage newOrder = orders[_orderNo];\r\n        newOrder.id = _id;\r\n        newOrder.orderNo = _orderNo;\r\n        newOrder.orderDate = _orderDate;\r\n        newOrder.orderBy = _orderBy;\r\n        newOrder.shipTo = _shipTo;\r\n        newOrder.container = \"NA\";\r\n        newOrder.status = \"Pending\";\r\n\r\n        for (uint i = 0; i < _partSerialNos.length; i++) {\r\n            Part memory newPart = Part({\r\n                partSerialNo: _partSerialNos[i],\r\n                partName: _partNames[i],\r\n                quantity: _quantities[i],\r\n                unitPrice: _unitPrices[i],\r\n                totalAmount: _quantities[i] * _unitPrices[i]\r\n            });\r\n            newOrder.parts.push(newPart);\r\n        }\r\n        orderExists[_orderNo] = true;\r\n    }\r\n\r\n    function updateOrder(string memory _orderNo, string memory _status, string memory _container) public {\r\n        require(orderExists[_orderNo], \"Order does not exist.\");\r\n        orders[_orderNo].status = _status;\r\n        orders[_orderNo].container = _container;\r\n    }\r\n\r\n    function getOrder(string memory _orderNo) public view returns (string memory, string memory, string memory, string memory, string memory, string memory) {\r\n        require(orderExists[_orderNo], \"Order does not exist.\");\r\n        Order memory order = orders[_orderNo];\r\n        return (order.orderNo, order.orderDate, order.orderBy, order.shipTo, order.container, order.status);\r\n    }\r\n}\r\n",
  "sourcePath": "C:\\Shubham\\App\\server\\contracts\\OrderRegistry.sol",
  "compiler": {
    "name": "solc",
    "version": "0.5.16+commit.9c3226ce.Emscripten.clang"
  },
  "schemaVersion": "3.4.16",
  "updatedAt": "2024-04-29T20:44:00.267Z",
  "networkType": "ethereum",
  "devdoc": {
    "methods": {}
  },
  "userdoc": {
    "methods": {}
  }
}