{
  "contractName": "PartRegistry",
  "abi": [
    {
      "constant": true,
      "inputs": [
        {
          "internalType": "string",
          "name": "",
          "type": "string"
        }
      ],
      "name": "partExists",
      "outputs": [
        {
          "internalType": "bool",
          "name": "",
          "type": "bool"
        }
      ],
      "payable": false,
      "stateMutability": "view",
      "type": "function"
    },
    {
      "constant": true,
      "inputs": [
        {
          "internalType": "string",
          "name": "",
          "type": "string"
        }
      ],
      "name": "parts",
      "outputs": [
        {
          "internalType": "string",
          "name": "id",
          "type": "string"
        },
        {
          "internalType": "string",
          "name": "partSerialNo",
          "type": "string"
        },
        {
          "internalType": "string",
          "name": "partName",
          "type": "string"
        },
        {
          "internalType": "string",
          "name": "length",
          "type": "string"
        },
        {
          "internalType": "string",
          "name": "width",
          "type": "string"
        },
        {
          "internalType": "string",
          "name": "unitPrice",
          "type": "string"
        }
      ],
      "payable": false,
      "stateMutability": "view",
      "type": "function"
    },
    {
      "constant": false,
      "inputs": [
        {
          "internalType": "string",
          "name": "_id",
          "type": "string"
        },
        {
          "internalType": "string",
          "name": "_partSerialNo",
          "type": "string"
        },
        {
          "internalType": "string",
          "name": "_partName",
          "type": "string"
        },
        {
          "internalType": "string",
          "name": "_length",
          "type": "string"
        },
        {
          "internalType": "string",
          "name": "_width",
          "type": "string"
        },
        {
          "internalType": "string",
          "name": "_unitPrice",
          "type": "string"
        }
      ],
      "name": "addPart",
      "outputs": [],
      "payable": false,
      "stateMutability": "nonpayable",
      "type": "function"
    },
    {
      "constant": false,
      "inputs": [
        {
          "internalType": "string",
          "name": "_id",
          "type": "string"
        },
        {
          "internalType": "string",
          "name": "_unitPrice",
          "type": "string"
        }
      ],
      "name": "updatePart",
      "outputs": [],
      "payable": false,
      "stateMutability": "nonpayable",
      "type": "function"
    },
    {
      "constant": true,
      "inputs": [
        {
          "internalType": "string",
          "name": "_id",
          "type": "string"
        }
      ],
      "name": "getPart",
      "outputs": [
        {
          "internalType": "string",
          "name": "",
          "type": "string"
        },
        {
          "internalType": "string",
          "name": "",
          "type": "string"
        },
        {
          "internalType": "string",
          "name": "",
          "type": "string"
        },
        {
          "internalType": "string",
          "name": "",
          "type": "string"
        },
        {
          "internalType": "string",
          "name": "",
          "type": "string"
        },
        {
          "internalType": "string",
          "name": "",
          "type": "string"
        }
      ],
      "payable": false,
      "stateMutability": "view",
      "type": "function"
    }
  ],
  "bytecode": "0x608060405234801561001057600080fd5b50611646806100206000396000f3fe608060405234801561001057600080fd5b50600436106100575760003560e01c80631b7b1ffa1461005c57806337677e46146101875780639629e0fd1461023f578063ab9f2cfe14610559578063bb959d3f146105fd575b600080fd5b6101856004803603604081101561007257600080fd5b810190602081018135600160201b81111561008c57600080fd5b82018360208201111561009e57600080fd5b803590602001918460018302840111600160201b831117156100bf57600080fd5b91908080601f0160208091040260200160405190810160405280939291908181526020018383808284376000920191909152509295949360208101935035915050600160201b81111561011157600080fd5b82018360208201111561012357600080fd5b803590602001918460018302840111600160201b8311171561014457600080fd5b91908080601f01602080910402602001604051908101604052809392919081815260200183838082843760009201919091525092955061093a945050505050565b005b61022b6004803603602081101561019d57600080fd5b810190602081018135600160201b8111156101b757600080fd5b8201836020820111156101c957600080fd5b803590602001918460018302840111600160201b831117156101ea57600080fd5b91908080601f016020809104026020016040519081016040528093929190818152602001838380828437600092019190915250929550610a64945050505050565b604080519115158252519081900360200190f35b6102e36004803603602081101561025557600080fd5b810190602081018135600160201b81111561026f57600080fd5b82018360208201111561028157600080fd5b803590602001918460018302840111600160201b831117156102a257600080fd5b91908080601f016020809104026020016040519081016040528093929190818152602001838380828437600092019190915250929550610a84945050505050565b6040518080602001806020018060200180602001806020018060200187810387528d818151815260200191508051906020019080838360005b8381101561033457818101518382015260200161031c565b50505050905090810190601f1680156103615780820380516001836020036101000a031916815260200191505b5087810386528c5181528c516020918201918e019080838360005b8381101561039457818101518382015260200161037c565b50505050905090810190601f1680156103c15780820380516001836020036101000a031916815260200191505b5087810385528b5181528b516020918201918d019080838360005b838110156103f45781810151838201526020016103dc565b50505050905090810190601f1680156104215780820380516001836020036101000a031916815260200191505b5087810384528a5181528a516020918201918c019080838360005b8381101561045457818101518382015260200161043c565b50505050905090810190601f1680156104815780820380516001836020036101000a031916815260200191505b5087810383528951815289516020918201918b019080838360005b838110156104b457818101518382015260200161049c565b50505050905090810190601f1680156104e15780820380516001836020036101000a031916815260200191505b5087810382528851815288516020918201918a019080838360005b838110156105145781810151838201526020016104fc565b50505050905090810190601f1680156105415780820380516001836020036101000a031916815260200191505b509c5050505050505050505050505060405180910390f35b6102e36004803603602081101561056f57600080fd5b810190602081018135600160201b81111561058957600080fd5b82018360208201111561059b57600080fd5b803590602001918460018302840111600160201b831117156105bc57600080fd5b91908080601f016020809104026020016040519081016040528093929190818152602001838380828437600092019190915250929550610e11945050505050565b610185600480360360c081101561061357600080fd5b810190602081018135600160201b81111561062d57600080fd5b82018360208201111561063f57600080fd5b803590602001918460018302840111600160201b8311171561066057600080fd5b91908080601f0160208091040260200160405190810160405280939291908181526020018383808284376000920191909152509295949360208101935035915050600160201b8111156106b257600080fd5b8201836020820111156106c457600080fd5b803590602001918460018302840111600160201b831117156106e557600080fd5b91908080601f0160208091040260200160405190810160405280939291908181526020018383808284376000920191909152509295949360208101935035915050600160201b81111561073757600080fd5b82018360208201111561074957600080fd5b803590602001918460018302840111600160201b8311171561076a57600080fd5b91908080601f0160208091040260200160405190810160405280939291908181526020018383808284376000920191909152509295949360208101935035915050600160201b8111156107bc57600080fd5b8201836020820111156107ce57600080fd5b803590602001918460018302840111600160201b831117156107ef57600080fd5b91908080601f0160208091040260200160405190810160405280939291908181526020018383808284376000920191909152509295949360208101935035915050600160201b81111561084157600080fd5b82018360208201111561085357600080fd5b803590602001918460018302840111600160201b8311171561087457600080fd5b91908080601f0160208091040260200160405190810160405280939291908181526020018383808284376000920191909152509295949360208101935035915050600160201b8111156108c657600080fd5b8201836020820111156108d857600080fd5b803590602001918460018302840111600160201b831117156108f957600080fd5b91908080601f0160208091040260200160405190810160405280939291908181526020018383808284376000920191909152509295506112ee945050505050565b6001826040518082805190602001908083835b6020831061096c5780518252601f19909201916020918201910161094d565b51815160209384036101000a600019018019909216911617905292019485525060405193849003019092205460ff1691506109e79050576040805162461bcd60e51b81526020600482015260146024820152732830b93a103237b2b9903737ba1032bc34b9ba1760611b604482015290519081900360640190fd5b806000836040518082805190602001908083835b60208310610a1a5780518252601f1990920191602091820191016109fb565b51815160209384036101000a60001901801990921691161790529201948552506040519384900381019093208451610a5f956005909201949190910192509050611540565b505050565b805160208183018101805160018252928201919093012091525460ff1681565b805160208183018101805160008252928201938201939093209190925280546040805160026001841615610100026000190190931692909204601f8101859004850283018501909152808252919290918391830182828015610b275780601f10610afc57610100808354040283529160200191610b27565b820191906000526020600020905b815481529060010190602001808311610b0a57829003601f168201915b505050505090806001018054600181600116156101000203166002900480601f016020809104026020016040519081016040528092919081815260200182805460018160011615610100020316600290048015610bc55780601f10610b9a57610100808354040283529160200191610bc5565b820191906000526020600020905b815481529060010190602001808311610ba857829003601f168201915b50505060028085018054604080516020601f6000196101006001871615020190941695909504928301859004850281018501909152818152959695945090925090830182828015610c575780601f10610c2c57610100808354040283529160200191610c57565b820191906000526020600020905b815481529060010190602001808311610c3a57829003601f168201915b5050505060038301805460408051602060026001851615610100026000190190941693909304601f8101849004840282018401909252818152949594935090830182828015610ce75780601f10610cbc57610100808354040283529160200191610ce7565b820191906000526020600020905b815481529060010190602001808311610cca57829003601f168201915b5050505060048301805460408051602060026001851615610100026000190190941693909304601f8101849004840282018401909252818152949594935090830182828015610d775780601f10610d4c57610100808354040283529160200191610d77565b820191906000526020600020905b815481529060010190602001808311610d5a57829003601f168201915b5050505060058301805460408051602060026001851615610100026000190190941693909304601f8101849004840282018401909252818152949594935090830182828015610e075780601f10610ddc57610100808354040283529160200191610e07565b820191906000526020600020905b815481529060010190602001808311610dea57829003601f168201915b5050505050905086565b6060806060806060806001876040518082805190602001908083835b60208310610e4c5780518252601f199092019160209182019101610e2d565b51815160209384036101000a600019018019909216911617905292019485525060405193849003019092205460ff169150610ec79050576040805162461bcd60e51b815260206004820152601460248201527324ba32b6903237b2b9903737ba1032bc34b9ba1760611b604482015290519081900360640190fd5b610ecf6115be565b6000886040518082805190602001908083835b60208310610f015780518252601f199092019160209182019101610ee2565b518151600019602094850361010090810a82019283169219939093169190911790925294909201968752604080519788900382018820805460e0601f600260018416159099029096019091169690960493840183900490920288018501905260c0870182815290955086945092859250840182828015610fc25780601f10610f9757610100808354040283529160200191610fc2565b820191906000526020600020905b815481529060010190602001808311610fa557829003601f168201915b50505050508152602001600182018054600181600116156101000203166002900480601f0160208091040260200160405190810160405280929190818152602001828054600181600116156101000203166002900480156110645780601f1061103957610100808354040283529160200191611064565b820191906000526020600020905b81548152906001019060200180831161104757829003601f168201915b5050509183525050600282810180546040805160206001841615610100026000190190931694909404601f810183900483028501830190915280845293810193908301828280156110f65780601f106110cb576101008083540402835291602001916110f6565b820191906000526020600020905b8154815290600101906020018083116110d957829003601f168201915b505050918352505060038201805460408051602060026001851615610100026000190190941693909304601f810184900484028201840190925281815293820193929183018282801561118a5780601f1061115f5761010080835404028352916020019161118a565b820191906000526020600020905b81548152906001019060200180831161116d57829003601f168201915b505050918352505060048201805460408051602060026001851615610100026000190190941693909304601f810184900484028201840190925281815293820193929183018282801561121e5780601f106111f35761010080835404028352916020019161121e565b820191906000526020600020905b81548152906001019060200180831161120157829003601f168201915b505050918352505060058201805460408051602060026001851615610100026000190190941693909304601f81018490048402820184019092528181529382019392918301828280156112b25780601f10611287576101008083540402835291602001916112b2565b820191906000526020600020905b81548152906001019060200180831161129557829003601f168201915b5050509190925250508151602083015160408401516060850151608086015160a090960151939e929d50909b5099509297509550909350505050565b6001866040518082805190602001908083835b602083106113205780518252601f199092019160209182019101611301565b51815160209384036101000a600019018019909216911617905292019485525060405193849003019092205460ff1615915061139b9050576040805162461bcd60e51b81526020600482015260136024820152725061727420616c72656164792065786973747360681b604482015290519081900360640190fd5b6040518060c00160405280878152602001868152602001858152602001848152602001838152602001828152506000876040518082805190602001908083835b602083106113fa5780518252601f1990920191602091820191016113db565b51815160209384036101000a600019018019909216911617905292019485525060405193849003810190932084518051919461143b94508593500190611540565b5060208281015180516114549260018501920190611540565b5060408201518051611470916002840191602090910190611540565b506060820151805161148c916003840191602090910190611540565b50608082015180516114a8916004840191602090910190611540565b5060a082015180516114c4916005840191602090910190611540565b50905050600180876040518082805190602001908083835b602083106114fb5780518252601f1990920191602091820191016114dc565b51815160209384036101000a60001901801990921691161790529201948552506040519384900301909220805460ff1916931515939093179092555050505050505050565b828054600181600116156101000203166002900490600052602060002090601f016020900481019282601f1061158157805160ff19168380011785556115ae565b828001600101855582156115ae579182015b828111156115ae578251825591602001919060010190611593565b506115ba9291506115f4565b5090565b6040518060c001604052806060815260200160608152602001606081526020016060815260200160608152602001606081525090565b61160e91905b808211156115ba57600081556001016115fa565b9056fea265627a7a7231582081a383bb2bf196e9063c2ed0d67e21bd58b06ca75a2391ed2585eef8d58bceb764736f6c63430005100032",
  "source": "pragma solidity >=0.4.22 <0.7.0;\r\n\r\ncontract PartRegistry {\r\n    struct Part {\r\n        string id;\r\n        string partSerialNo;\r\n        string partName;\r\n        string length;\r\n        string width;\r\n        string unitPrice;\r\n    }\r\n\r\n    mapping(string => Part) public parts;\r\n    mapping(string => bool) public partExists;\r\n\r\n    function addPart(string memory _id, string memory _partSerialNo, string memory _partName, string memory _length, string memory _width, string memory _unitPrice) public {\r\n        require(!partExists[_id], \"Part already exists\");\r\n        parts[_id] = Part(_id, _partSerialNo, _partName, _length, _width, _unitPrice);\r\n        partExists[_id] = true;\r\n    }\r\n\r\n    function updatePart(string memory _id, string memory _unitPrice) public {\r\n        require(partExists[_id], \"Part does not exist.\");\r\n        parts[_id].unitPrice = _unitPrice;\r\n    }\r\n\r\n    function getPart(string memory _id) public view returns (string memory, string memory, string memory, string memory, string memory, string memory) {\r\n        require(partExists[_id], \"Item does not exist.\");\r\n        Part memory part = parts[_id];\r\n        return (part.id, part.partSerialNo, part.partName, part.length, part.width, part.unitPrice);\r\n    }\r\n}",
  "sourcePath": "C:\\Shubham\\App\\server\\contracts\\PartRegistry.sol",
  "compiler": {
    "name": "solc",
    "version": "0.5.16+commit.9c3226ce.Emscripten.clang"
  },
  "schemaVersion": "3.4.16",
  "updatedAt": "2024-04-29T20:44:00.256Z",
  "networkType": "ethereum",
  "devdoc": {
    "methods": {}
  },
  "userdoc": {
    "methods": {}
  }
}