{
  "contractName": "ProcessStepRegistry",
  "abi": [
    {
      "constant": true,
      "inputs": [
        {
          "internalType": "string",
          "name": "",
          "type": "string"
        }
      ],
      "name": "processStepExists",
      "outputs": [
        {
          "internalType": "bool",
          "name": "",
          "type": "bool"
        }
      ],
      "payable": false,
      "stateMutability": "view",
      "type": "function"
    },
    {
      "constant": true,
      "inputs": [
        {
          "internalType": "string",
          "name": "",
          "type": "string"
        }
      ],
      "name": "processSteps",
      "outputs": [
        {
          "internalType": "string",
          "name": "id",
          "type": "string"
        },
        {
          "internalType": "string",
          "name": "mainPartSerialNo",
          "type": "string"
        },
        {
          "internalType": "string",
          "name": "mainPartName",
          "type": "string"
        },
        {
          "internalType": "string",
          "name": "addedBy",
          "type": "string"
        }
      ],
      "payable": false,
      "stateMutability": "view",
      "type": "function"
    },
    {
      "constant": false,
      "inputs": [
        {
          "internalType": "string",
          "name": "_id",
          "type": "string"
        },
        {
          "internalType": "string",
          "name": "_mainPartSerialNo",
          "type": "string"
        },
        {
          "internalType": "string",
          "name": "_mainPartName",
          "type": "string"
        },
        {
          "components": [
            {
              "internalType": "string",
              "name": "stepType",
              "type": "string"
            },
            {
              "internalType": "string",
              "name": "partSerialNo",
              "type": "string"
            },
            {
              "internalType": "string",
              "name": "partName",
              "type": "string"
            },
            {
              "internalType": "uint256",
              "name": "quantity",
              "type": "uint256"
            },
            {
              "internalType": "string",
              "name": "operationDescription",
              "type": "string"
            },
            {
              "internalType": "string",
              "name": "units",
              "type": "string"
            }
          ],
          "internalType": "struct ProcessStepRegistry.Step[]",
          "name": "_steps",
          "type": "tuple[]"
        },
        {
          "internalType": "string",
          "name": "_addedBy",
          "type": "string"
        }
      ],
      "name": "addProcessStep",
      "outputs": [],
      "payable": false,
      "stateMutability": "nonpayable",
      "type": "function"
    },
    {
      "constant": false,
      "inputs": [
        {
          "internalType": "string",
          "name": "_id",
          "type": "string"
        },
        {
          "components": [
            {
              "internalType": "string",
              "name": "stepType",
              "type": "string"
            },
            {
              "internalType": "string",
              "name": "partSerialNo",
              "type": "string"
            },
            {
              "internalType": "string",
              "name": "partName",
              "type": "string"
            },
            {
              "internalType": "uint256",
              "name": "quantity",
              "type": "uint256"
            },
            {
              "internalType": "string",
              "name": "operationDescription",
              "type": "string"
            },
            {
              "internalType": "string",
              "name": "units",
              "type": "string"
            }
          ],
          "internalType": "struct ProcessStepRegistry.Step[]",
          "name": "_newSteps",
          "type": "tuple[]"
        }
      ],
      "name": "updateProcessStep",
      "outputs": [],
      "payable": false,
      "stateMutability": "nonpayable",
      "type": "function"
    },
    {
      "constant": true,
      "inputs": [
        {
          "internalType": "string",
          "name": "_id",
          "type": "string"
        }
      ],
      "name": "getProcessStep",
      "outputs": [
        {
          "internalType": "string",
          "name": "mainPartSerialNo",
          "type": "string"
        },
        {
          "internalType": "string",
          "name": "mainPartName",
          "type": "string"
        },
        {
          "internalType": "string",
          "name": "addedBy",
          "type": "string"
        },
        {
          "internalType": "uint256",
          "name": "stepCount",
          "type": "uint256"
        }
      ],
      "payable": false,
      "stateMutability": "view",
      "type": "function"
    }
  ],
  "bytecode": "0x608060405234801561001057600080fd5b506114e0806100206000396000f3fe608060405234801561001057600080fd5b50600436106100575760003560e01c80630f9fc9dd1461005c57806335fa31d5146100715780633e56fb841461009a57806358f11354146100ad5780635df4cd2c146100d0575b600080fd5b61006f61006a36600461109b565b6100f3565b005b61008461007f36600461105f565b61024e565b60405161009191906112ed565b60405180910390f35b61006f6100a8366004611102565b61026e565b6100c06100bb36600461105f565b610441565b604051610091949392919061134c565b6100e36100de36600461105f565b6106ae565b60405161009194939291906112fb565b60018260405161010391906112da565b9081526040519081900360200190205460ff1661013b5760405162461bcd60e51b8152600401610132906113b3565b60405180910390fd5b6000808360405161014c91906112da565b908152604051908190036020019020905061016b600382016000610cf3565b60005b8251811015610248578160030183828151811061018757fe5b6020908102919091018101518254600181018085556000948552938390208251805193946006909302909101926101c19284920190610d17565b5060208281015180516101da9260018501920190610d17565b50604082015180516101f6916002840191602090910190610d17565b50606082015160038201556080820151805161021c916004840191602090910190610d17565b5060a08201518051610238916005840191602090910190610d17565b50506001909201915061016e9050565b50505050565b805160208183018101805160018252928201919093012091525460ff1681565b60018560405161027e91906112da565b9081526040519081900360200190205460ff16156102ae5760405162461bcd60e51b8152600401610132906113a3565b600080866040516102bf91906112da565b90815260200160405180910390209050858160000190805190602001906102e7929190610d17565b5084516102fd9060018301906020880190610d17565b5083516103139060028301906020870190610d17565b5060005b83518110156103f1578160030184828151811061033057fe5b60209081029190910181015182546001810180855560009485529383902082518051939460069093029091019261036a9284920190610d17565b5060208281015180516103839260018501920190610d17565b506040820151805161039f916002840191602090910190610d17565b5060608201516003820155608082015180516103c5916004840191602090910190610d17565b5060a082015180516103e1916005840191602090910190610d17565b5050600190920191506103179050565b5081516104079060048301906020850190610d17565b506001808760405161041991906112da565b908152604051908190036020019020805491151560ff19909216919091179055505050505050565b805160208183018101805160008252928201938201939093209190925280546040805160026001841615610100026000190190931692909204601f81018590048502830185019091528082529192909183918301828280156104e45780601f106104b9576101008083540402835291602001916104e4565b820191906000526020600020905b8154815290600101906020018083116104c757829003601f168201915b505050505090806001018054600181600116156101000203166002900480601f0160208091040260200160405190810160405280929190818152602001828054600181600116156101000203166002900480156105825780601f1061055757610100808354040283529160200191610582565b820191906000526020600020905b81548152906001019060200180831161056557829003601f168201915b50505060028085018054604080516020601f60001961010060018716150201909416959095049283018590048502810185019091528181529596959450909250908301828280156106145780601f106105e957610100808354040283529160200191610614565b820191906000526020600020905b8154815290600101906020018083116105f757829003601f168201915b5050505060048301805460408051602060026001851615610100026000190190941693909304601f81018490048402820184019092528181529495949350908301828280156106a45780601f10610679576101008083540402835291602001916106a4565b820191906000526020600020905b81548152906001019060200180831161068757829003601f168201915b5050505050905084565b606080606060006001856040516106c591906112da565b9081526040519081900360200190205460ff166106f45760405162461bcd60e51b8152600401610132906113b3565b6106fc610d95565b60008660405161070c91906112da565b9081526040805160209281900383018120805460026001821615610100026000190190911604601f8101859004909402820160c090810190935260a082018481529193909284929184918401828280156107a75780601f1061077c576101008083540402835291602001916107a7565b820191906000526020600020905b81548152906001019060200180831161078a57829003601f168201915b50505050508152602001600182018054600181600116156101000203166002900480601f0160208091040260200160405190810160405280929190818152602001828054600181600116156101000203166002900480156108495780601f1061081e57610100808354040283529160200191610849565b820191906000526020600020905b81548152906001019060200180831161082c57829003601f168201915b5050509183525050600282810180546040805160206001841615610100026000190190931694909404601f810183900483028501830190915280845293810193908301828280156108db5780601f106108b0576101008083540402835291602001916108db565b820191906000526020600020905b8154815290600101906020018083116108be57829003601f168201915b5050505050815260200160038201805480602002602001604051908101604052809291908181526020016000905b82821015610c305760008481526020908190206040805160068602909201805460026001821615610100026000190190911604601f8101859004909402830160e090810190925260c08301848152929390928492909184918401828280156109b25780601f10610987576101008083540402835291602001916109b2565b820191906000526020600020905b81548152906001019060200180831161099557829003601f168201915b50505050508152602001600182018054600181600116156101000203166002900480601f016020809104026020016040519081016040528092919081815260200182805460018160011615610100020316600290048015610a545780601f10610a2957610100808354040283529160200191610a54565b820191906000526020600020905b815481529060010190602001808311610a3757829003601f168201915b5050509183525050600282810180546040805160206001841615610100026000190190931694909404601f81018390048302850183019091528084529381019390830182828015610ae65780601f10610abb57610100808354040283529160200191610ae6565b820191906000526020600020905b815481529060010190602001808311610ac957829003601f168201915b5050509183525050600382015460208083019190915260048301805460408051601f60026000196101006001871615020190941693909304928301859004850281018501825282815294019392830182828015610b845780601f10610b5957610100808354040283529160200191610b84565b820191906000526020600020905b815481529060010190602001808311610b6757829003601f168201915b505050918352505060058201805460408051602060026001851615610100026000190190941693909304601f8101849004840282018401909252818152938201939291830182828015610c185780601f10610bed57610100808354040283529160200191610c18565b820191906000526020600020905b815481529060010190602001808311610bfb57829003601f168201915b50505050508152505081526020019060010190610909565b5050509082525060048201805460408051602060026001851615610100026000190190941693909304601f8101849004840282018401909252818152938201939291830182828015610cc35780601f10610c9857610100808354040283529160200191610cc3565b820191906000526020600020905b815481529060010190602001808311610ca657829003601f168201915b50505091909252505050602081015160408201516080830151606090930151519199909850919650945092505050565b5080546000825560060290600052602060002090810190610d149190610dc4565b50565b828054600181600116156101000203166002900490600052602060002090601f016020900481019282601f10610d5857805160ff1916838001178555610d85565b82800160010185558215610d85579182015b82811115610d85578251825591602001919060010190610d6a565b50610d91929150610e2c565b5090565b6040518060a0016040528060608152602001606081526020016060815260200160608152602001606081525090565b610e2991905b80821115610d91576000610dde8282610e46565b610dec600183016000610e46565b610dfa600283016000610e46565b6003820160009055600482016000610e129190610e46565b610e20600583016000610e46565b50600601610dca565b90565b610e2991905b80821115610d915760008155600101610e32565b50805460018160011615610100020316600290046000825580601f10610e6c5750610d14565b601f016020900490600052602060002090810190610d149190610e2c565b600082601f830112610e9b57600080fd5b8135610eae610ea9826113e9565b6113c3565b81815260209384019390925082018360005b83811015610eec5781358601610ed68882610f45565b8452506020928301929190910190600101610ec0565b5050505092915050565b600082601f830112610f0757600080fd5b8135610f15610ea982611409565b91508082526020830160208301858383011115610f3157600080fd5b610f3c838284611447565b50505092915050565b600060c08284031215610f5757600080fd5b610f6160c06113c3565b905081356001600160401b03811115610f7957600080fd5b610f8584828501610ef6565b82525060208201356001600160401b03811115610fa157600080fd5b610fad84828501610ef6565b60208301525060408201356001600160401b03811115610fcc57600080fd5b610fd884828501610ef6565b6040830152506060610fec8482850161104e565b60608301525060808201356001600160401b0381111561100b57600080fd5b61101784828501610ef6565b60808301525060a08201356001600160401b0381111561103657600080fd5b61104284828501610ef6565b60a08301525092915050565b803561105981611489565b92915050565b60006020828403121561107157600080fd5b81356001600160401b0381111561108757600080fd5b61109384828501610ef6565b949350505050565b600080604083850312156110ae57600080fd5b82356001600160401b038111156110c457600080fd5b6110d085828601610ef6565b92505060208301356001600160401b038111156110ec57600080fd5b6110f885828601610e8a565b9150509250929050565b600080600080600060a0868803121561111a57600080fd5b85356001600160401b0381111561113057600080fd5b61113c88828901610ef6565b95505060208601356001600160401b0381111561115857600080fd5b61116488828901610ef6565b94505060408601356001600160401b0381111561118057600080fd5b61118c88828901610ef6565b93505060608601356001600160401b038111156111a857600080fd5b6111b488828901610e8a565b92505060808601356001600160401b038111156111d057600080fd5b6111dc88828901610ef6565b9150509295509295909350565b6111f281611442565b82525050565b600061120382611430565b61120d8185611434565b935061121d818560208601611453565b6112268161147f565b9093019392505050565b600061123b82611430565b611245818561143d565b9350611255818560208601611453565b9290920192915050565b600061126c601b83611434565b7f50726f63657373207374657020616c7265616479206578697374730000000000815260200192915050565b60006112a5601b83611434565b7f50726f63657373207374657020646f6573206e6f742065786973740000000000815260200192915050565b6111f281610e29565b60006112e68284611230565b9392505050565b6020810161105982846111e9565b6080808252810161130c81876111f8565b9050818103602083015261132081866111f8565b9050818103604083015261133481856111f8565b905061134360608301846112d1565b95945050505050565b6080808252810161135d81876111f8565b9050818103602083015261137181866111f8565b9050818103604083015261138581856111f8565b9050818103606083015261139981846111f8565b9695505050505050565b602080825281016110598161125f565b6020808252810161105981611298565b6040518181016001600160401b03811182821017156113e157600080fd5b604052919050565b60006001600160401b038211156113ff57600080fd5b5060209081020190565b60006001600160401b0382111561141f57600080fd5b506020601f91909101601f19160190565b5190565b90815260200190565b919050565b151590565b82818337506000910152565b60005b8381101561146e578181015183820152602001611456565b838111156102485750506000910152565b601f01601f191690565b61149281610e29565b8114610d1457600080fdfea365627a7a72315820cb0c6493b23de793d8e4b0a8890042f7de0d98a57ed8a66ddd73c10909617eb06c6578706572696d656e74616cf564736f6c63430005100040",
  "source": "pragma solidity >=0.4.22 <0.7.0;\r\npragma experimental ABIEncoderV2;\r\n\r\ncontract ProcessStepRegistry {\r\n    struct Step {\r\n        string stepType; \r\n        string partSerialNo;\r\n        string partName;\r\n        uint quantity;\r\n        string operationDescription;\r\n        string units;\r\n    }\r\n\r\n    struct ProcessStep {\r\n        string id;\r\n        string mainPartSerialNo;\r\n        string mainPartName;\r\n        Step[] steps;\r\n        string addedBy;\r\n    }\r\n\r\n    mapping(string => ProcessStep) public processSteps;\r\n    mapping(string => bool) public processStepExists;\r\n\r\n    function addProcessStep(\r\n        string memory _id,\r\n        string memory _mainPartSerialNo,\r\n        string memory _mainPartName,\r\n        Step[] memory _steps,\r\n        string memory _addedBy\r\n    ) public {\r\n        require(!processStepExists[_id], \"Process step already exists\");\r\n        ProcessStep storage newProcessStep = processSteps[_id];\r\n        newProcessStep.id = _id;\r\n        newProcessStep.mainPartSerialNo = _mainPartSerialNo;\r\n        newProcessStep.mainPartName = _mainPartName;\r\n        for (uint i = 0; i < _steps.length; i++) {\r\n            newProcessStep.steps.push(_steps[i]);\r\n        }\r\n        newProcessStep.addedBy = _addedBy;\r\n        processStepExists[_id] = true;\r\n    }\r\n\r\n    // Function to update an existing process step\r\n    function updateProcessStep(string memory _id, Step[] memory _newSteps) public {\r\n        require(processStepExists[_id], \"Process step does not exist\");\r\n        ProcessStep storage processStep = processSteps[_id];\r\n        delete processStep.steps;  // Clear the existing steps\r\n        for (uint i = 0; i < _newSteps.length; i++) {\r\n            processStep.steps.push(_newSteps[i]);\r\n        }\r\n    }\r\n\r\n    // Function to get a process step\r\n    function getProcessStep(string memory _id) public view returns (\r\n    string memory mainPartSerialNo,\r\n    string memory mainPartName,\r\n    string memory addedBy,\r\n    uint stepCount\r\n) {\r\n    require(processStepExists[_id], \"Process step does not exist\");\r\n    ProcessStep memory processStep = processSteps[_id];\r\n    return (\r\n        processStep.mainPartSerialNo,\r\n        processStep.mainPartName,\r\n        processStep.addedBy,\r\n        processStep.steps.length // Corrected to return uint for step count\r\n    );\r\n}\r\n}\r\n",
  "sourcePath": "C:\\Shubham\\App\\server\\contracts\\ProcessStepRegistry.sol",
  "compiler": {
    "name": "solc",
    "version": "0.5.16+commit.9c3226ce.Emscripten.clang"
  },
  "schemaVersion": "3.4.16",
  "updatedAt": "2024-04-29T20:44:00.277Z",
  "networkType": "ethereum",
  "devdoc": {
    "methods": {}
  },
  "userdoc": {
    "methods": {}
  }
}